{
  "contractName": "ChillaZilla",
  "abi": [
    {
      "inputs": [
        {
          "internalType": "string",
          "name": "name",
          "type": "string"
        },
        {
          "internalType": "string",
          "name": "symbol",
          "type": "string"
        },
        {
          "internalType": "uint256",
          "name": "supply",
          "type": "uint256"
        },
        {
          "internalType": "uint256",
          "name": "genCount",
          "type": "uint256"
        }
      ],
      "stateMutability": "nonpayable",
      "type": "constructor"
    },
    {
      "anonymous": false,
      "inputs": [
        {
          "indexed": true,
          "internalType": "address",
          "name": "owner",
          "type": "address"
        },
        {
          "indexed": true,
          "internalType": "address",
          "name": "approved",
          "type": "address"
        },
        {
          "indexed": true,
          "internalType": "uint256",
          "name": "tokenId",
          "type": "uint256"
        }
      ],
      "name": "Approval",
      "type": "event"
    },
    {
      "anonymous": false,
      "inputs": [
        {
          "indexed": true,
          "internalType": "address",
          "name": "owner",
          "type": "address"
        },
        {
          "indexed": true,
          "internalType": "address",
          "name": "operator",
          "type": "address"
        },
        {
          "indexed": false,
          "internalType": "bool",
          "name": "approved",
          "type": "bool"
        }
      ],
      "name": "ApprovalForAll",
      "type": "event"
    },
    {
      "anonymous": false,
      "inputs": [
        {
          "indexed": true,
          "internalType": "address",
          "name": "previousOwner",
          "type": "address"
        },
        {
          "indexed": true,
          "internalType": "address",
          "name": "newOwner",
          "type": "address"
        }
      ],
      "name": "OwnershipTransferred",
      "type": "event"
    },
    {
      "anonymous": false,
      "inputs": [
        {
          "indexed": true,
          "internalType": "address",
          "name": "from",
          "type": "address"
        },
        {
          "indexed": true,
          "internalType": "address",
          "name": "to",
          "type": "address"
        },
        {
          "indexed": true,
          "internalType": "uint256",
          "name": "tokenId",
          "type": "uint256"
        }
      ],
      "name": "Transfer",
      "type": "event"
    },
    {
      "anonymous": false,
      "inputs": [
        {
          "indexed": false,
          "internalType": "uint256",
          "name": "zillaId",
          "type": "uint256"
        },
        {
          "indexed": false,
          "internalType": "uint256",
          "name": "parent1",
          "type": "uint256"
        },
        {
          "indexed": false,
          "internalType": "uint256",
          "name": "parent2",
          "type": "uint256"
        }
      ],
      "name": "ZillaHatched",
      "type": "event"
    },
    {
      "anonymous": false,
      "inputs": [
        {
          "indexed": false,
          "internalType": "uint256",
          "name": "zillaId",
          "type": "uint256"
        }
      ],
      "name": "ZillaRevealed",
      "type": "event"
    },
    {
      "inputs": [],
      "name": "BREEDING_PRICE",
      "outputs": [
        {
          "internalType": "uint256",
          "name": "",
          "type": "uint256"
        }
      ],
      "stateMutability": "view",
      "type": "function"
    },
    {
      "inputs": [],
      "name": "ZEGG",
      "outputs": [
        {
          "internalType": "contract IZEGG",
          "name": "",
          "type": "address"
        }
      ],
      "stateMutability": "view",
      "type": "function"
    },
    {
      "inputs": [
        {
          "internalType": "address",
          "name": "to",
          "type": "address"
        },
        {
          "internalType": "uint256",
          "name": "tokenId",
          "type": "uint256"
        }
      ],
      "name": "approve",
      "outputs": [],
      "stateMutability": "nonpayable",
      "type": "function"
    },
    {
      "inputs": [
        {
          "internalType": "address",
          "name": "",
          "type": "address"
        }
      ],
      "name": "balanceGenesis",
      "outputs": [
        {
          "internalType": "uint256",
          "name": "",
          "type": "uint256"
        }
      ],
      "stateMutability": "view",
      "type": "function"
    },
    {
      "inputs": [
        {
          "internalType": "address",
          "name": "owner",
          "type": "address"
        }
      ],
      "name": "balanceOf",
      "outputs": [
        {
          "internalType": "uint256",
          "name": "",
          "type": "uint256"
        }
      ],
      "stateMutability": "view",
      "type": "function"
    },
    {
      "inputs": [
        {
          "internalType": "address[]",
          "name": "whitelistAddreses",
          "type": "address[]"
        },
        {
          "internalType": "uint256[]",
          "name": "amount",
          "type": "uint256[]"
        }
      ],
      "name": "editWhitelist",
      "outputs": [],
      "stateMutability": "nonpayable",
      "type": "function"
    },
    {
      "inputs": [
        {
          "internalType": "uint256",
          "name": "tokenId",
          "type": "uint256"
        }
      ],
      "name": "getApproved",
      "outputs": [
        {
          "internalType": "address",
          "name": "",
          "type": "address"
        }
      ],
      "stateMutability": "view",
      "type": "function"
    },
    {
      "inputs": [],
      "name": "hatchlingCount",
      "outputs": [
        {
          "internalType": "uint256",
          "name": "",
          "type": "uint256"
        }
      ],
      "stateMutability": "view",
      "type": "function"
    },
    {
      "inputs": [
        {
          "internalType": "uint256",
          "name": "",
          "type": "uint256"
        }
      ],
      "name": "hatchlingZilla",
      "outputs": [
        {
          "internalType": "uint256",
          "name": "",
          "type": "uint256"
        }
      ],
      "stateMutability": "view",
      "type": "function"
    },
    {
      "inputs": [
        {
          "internalType": "address",
          "name": "owner",
          "type": "address"
        },
        {
          "internalType": "address",
          "name": "operator",
          "type": "address"
        }
      ],
      "name": "isApprovedForAll",
      "outputs": [
        {
          "internalType": "bool",
          "name": "",
          "type": "bool"
        }
      ],
      "stateMutability": "view",
      "type": "function"
    },
    {
      "inputs": [],
      "name": "maxGenCount",
      "outputs": [
        {
          "internalType": "uint256",
          "name": "",
          "type": "uint256"
        }
      ],
      "stateMutability": "view",
      "type": "function"
    },
    {
      "inputs": [],
      "name": "maxSupply",
      "outputs": [
        {
          "internalType": "uint256",
          "name": "",
          "type": "uint256"
        }
      ],
      "stateMutability": "view",
      "type": "function"
    },
    {
      "inputs": [
        {
          "internalType": "uint256",
          "name": "numberOfMints",
          "type": "uint256"
        }
      ],
      "name": "mint",
      "outputs": [],
      "stateMutability": "payable",
      "type": "function"
    },
    {
      "inputs": [
        {
          "internalType": "uint256",
          "name": "numberOfMints",
          "type": "uint256"
        }
      ],
      "name": "mintPresale",
      "outputs": [],
      "stateMutability": "payable",
      "type": "function"
    },
    {
      "inputs": [],
      "name": "name",
      "outputs": [
        {
          "internalType": "string",
          "name": "",
          "type": "string"
        }
      ],
      "stateMutability": "view",
      "type": "function"
    },
    {
      "inputs": [],
      "name": "owner",
      "outputs": [
        {
          "internalType": "address",
          "name": "",
          "type": "address"
        }
      ],
      "stateMutability": "view",
      "type": "function"
    },
    {
      "inputs": [
        {
          "internalType": "uint256",
          "name": "tokenId",
          "type": "uint256"
        }
      ],
      "name": "ownerOf",
      "outputs": [
        {
          "internalType": "address",
          "name": "",
          "type": "address"
        }
      ],
      "stateMutability": "view",
      "type": "function"
    },
    {
      "inputs": [],
      "name": "presaleActive",
      "outputs": [
        {
          "internalType": "bool",
          "name": "",
          "type": "bool"
        }
      ],
      "stateMutability": "view",
      "type": "function"
    },
    {
      "inputs": [],
      "name": "presalePrice",
      "outputs": [
        {
          "internalType": "uint256",
          "name": "",
          "type": "uint256"
        }
      ],
      "stateMutability": "view",
      "type": "function"
    },
    {
      "inputs": [
        {
          "internalType": "address",
          "name": "",
          "type": "address"
        }
      ],
      "name": "presaleWhitelist",
      "outputs": [
        {
          "internalType": "uint256",
          "name": "",
          "type": "uint256"
        }
      ],
      "stateMutability": "view",
      "type": "function"
    },
    {
      "inputs": [],
      "name": "price",
      "outputs": [
        {
          "internalType": "uint256",
          "name": "",
          "type": "uint256"
        }
      ],
      "stateMutability": "view",
      "type": "function"
    },
    {
      "inputs": [],
      "name": "renounceOwnership",
      "outputs": [],
      "stateMutability": "nonpayable",
      "type": "function"
    },
    {
      "inputs": [],
      "name": "reserve",
      "outputs": [],
      "stateMutability": "nonpayable",
      "type": "function"
    },
    {
      "inputs": [],
      "name": "saleActive",
      "outputs": [
        {
          "internalType": "bool",
          "name": "",
          "type": "bool"
        }
      ],
      "stateMutability": "view",
      "type": "function"
    },
    {
      "inputs": [
        {
          "internalType": "address",
          "name": "operator",
          "type": "address"
        },
        {
          "internalType": "bool",
          "name": "approved",
          "type": "bool"
        }
      ],
      "name": "setApprovalForAll",
      "outputs": [],
      "stateMutability": "nonpayable",
      "type": "function"
    },
    {
      "inputs": [
        {
          "internalType": "string",
          "name": "uri",
          "type": "string"
        }
      ],
      "name": "setBaseURI",
      "outputs": [],
      "stateMutability": "nonpayable",
      "type": "function"
    },
    {
      "inputs": [
        {
          "internalType": "uint256",
          "name": "newPrice",
          "type": "uint256"
        }
      ],
      "name": "setPresalePrice",
      "outputs": [],
      "stateMutability": "nonpayable",
      "type": "function"
    },
    {
      "inputs": [
        {
          "internalType": "uint256",
          "name": "newPrice",
          "type": "uint256"
        }
      ],
      "name": "setPrice",
      "outputs": [],
      "stateMutability": "nonpayable",
      "type": "function"
    },
    {
      "inputs": [
        {
          "internalType": "bytes4",
          "name": "interfaceId",
          "type": "bytes4"
        }
      ],
      "name": "supportsInterface",
      "outputs": [
        {
          "internalType": "bool",
          "name": "",
          "type": "bool"
        }
      ],
      "stateMutability": "view",
      "type": "function"
    },
    {
      "inputs": [],
      "name": "symbol",
      "outputs": [
        {
          "internalType": "string",
          "name": "",
          "type": "string"
        }
      ],
      "stateMutability": "view",
      "type": "function"
    },
    {
      "inputs": [],
      "name": "togglePresale",
      "outputs": [],
      "stateMutability": "nonpayable",
      "type": "function"
    },
    {
      "inputs": [],
      "name": "toggleSale",
      "outputs": [],
      "stateMutability": "nonpayable",
      "type": "function"
    },
    {
      "inputs": [
        {
          "internalType": "uint256",
          "name": "index",
          "type": "uint256"
        }
      ],
      "name": "tokenByIndex",
      "outputs": [
        {
          "internalType": "uint256",
          "name": "",
          "type": "uint256"
        }
      ],
      "stateMutability": "view",
      "type": "function"
    },
    {
      "inputs": [
        {
          "internalType": "address",
          "name": "owner",
          "type": "address"
        },
        {
          "internalType": "uint256",
          "name": "index",
          "type": "uint256"
        }
      ],
      "name": "tokenOfOwnerByIndex",
      "outputs": [
        {
          "internalType": "uint256",
          "name": "",
          "type": "uint256"
        }
      ],
      "stateMutability": "view",
      "type": "function"
    },
    {
      "inputs": [
        {
          "internalType": "uint256",
          "name": "tokenId",
          "type": "uint256"
        }
      ],
      "name": "tokenURI",
      "outputs": [
        {
          "internalType": "string",
          "name": "",
          "type": "string"
        }
      ],
      "stateMutability": "view",
      "type": "function"
    },
    {
      "inputs": [],
      "name": "totalSupply",
      "outputs": [
        {
          "internalType": "uint256",
          "name": "",
          "type": "uint256"
        }
      ],
      "stateMutability": "view",
      "type": "function"
    },
    {
      "inputs": [
        {
          "internalType": "address",
          "name": "newOwner",
          "type": "address"
        }
      ],
      "name": "transferOwnership",
      "outputs": [],
      "stateMutability": "nonpayable",
      "type": "function"
    },
    {
      "inputs": [
        {
          "internalType": "address",
          "name": "owner",
          "type": "address"
        }
      ],
      "name": "walletOfOwner",
      "outputs": [
        {
          "internalType": "uint256[]",
          "name": "",
          "type": "uint256[]"
        }
      ],
      "stateMutability": "view",
      "type": "function"
    },
    {
      "inputs": [],
      "name": "withdraw",
      "outputs": [],
      "stateMutability": "nonpayable",
      "type": "function"
    },
    {
      "inputs": [
        {
          "internalType": "uint256",
          "name": "parent1",
          "type": "uint256"
        },
        {
          "internalType": "uint256",
          "name": "parent2",
          "type": "uint256"
        }
      ],
      "name": "breed",
      "outputs": [],
      "stateMutability": "nonpayable",
      "type": "function"
    },
    {
      "inputs": [
        {
          "internalType": "uint256",
          "name": "zillaId",
          "type": "uint256"
        }
      ],
      "name": "reveal",
      "outputs": [],
      "stateMutability": "nonpayable",
      "type": "function"
    },
    {
      "inputs": [
        {
          "internalType": "address",
          "name": "zEggAddress",
          "type": "address"
        }
      ],
      "name": "setZillaEgg",
      "outputs": [],
      "stateMutability": "nonpayable",
      "type": "function"
    },
    {
      "inputs": [
        {
          "internalType": "address",
          "name": "from",
          "type": "address"
        },
        {
          "internalType": "address",
          "name": "to",
          "type": "address"
        },
        {
          "internalType": "uint256",
          "name": "tokenId",
          "type": "uint256"
        }
      ],
      "name": "transferFrom",
      "outputs": [],
      "stateMutability": "nonpayable",
      "type": "function"
    },
    {
      "inputs": [
        {
          "internalType": "address",
          "name": "from",
          "type": "address"
        },
        {
          "internalType": "address",
          "name": "to",
          "type": "address"
        },
        {
          "internalType": "uint256",
          "name": "tokenId",
          "type": "uint256"
        }
      ],
      "name": "safeTransferFrom",
      "outputs": [],
      "stateMutability": "nonpayable",
      "type": "function"
    },
    {
      "inputs": [
        {
          "internalType": "address",
          "name": "from",
          "type": "address"
        },
        {
          "internalType": "address",
          "name": "to",
          "type": "address"
        },
        {
          "internalType": "uint256",
          "name": "tokenId",
          "type": "uint256"
        },
        {
          "internalType": "bytes",
          "name": "data",
          "type": "bytes"
        }
      ],
      "name": "safeTransferFrom",
      "outputs": [],
      "stateMutability": "nonpayable",
      "type": "function"
    }
  ],
  "bytecode": "0x60806040526000600e55666a94d74f430000600f5566470de4df8200006010556000601160006101000a81548160ff0219169083151502179055506000601160016101000a81548160ff0219169083151502179055503480156200006257600080fd5b5060405162005dfb38038062005dfb833981810160405281019062000088919062000454565b8383838383838160009080519060200190620000a6929190620001cc565b508060019080519060200190620000bf929190620001cc565b505050620000e2620000d6620000fe60201b60201c565b6200010660201b60201c565b81600c8190555080600d81905550505050505050505062000569565b600033905090565b6000600a60009054906101000a900473ffffffffffffffffffffffffffffffffffffffff16905081600a60006101000a81548173ffffffffffffffffffffffffffffffffffffffff021916908373ffffffffffffffffffffffffffffffffffffffff1602179055508173ffffffffffffffffffffffffffffffffffffffff168173ffffffffffffffffffffffffffffffffffffffff167f8be0079c531659141344cd1fd0a4f28419497f9722a3daafe3b4186f6b6457e060405160405180910390a35050565b828054620001da9062000533565b90600052602060002090601f016020900481019282620001fe57600085556200024a565b82601f106200021957805160ff19168380011785556200024a565b828001600101855582156200024a579182015b82811115620002495782518255916020019190600101906200022c565b5b5090506200025991906200025d565b5090565b5b80821115620002785760008160009055506001016200025e565b5090565b6000604051905090565b600080fd5b600080fd5b600080fd5b600080fd5b6000601f19601f8301169050919050565b7f4e487b7100000000000000000000000000000000000000000000000000000000600052604160045260246000fd5b620002e5826200029a565b810181811067ffffffffffffffff82111715620003075762000306620002ab565b5b80604052505050565b60006200031c6200027c565b90506200032a8282620002da565b919050565b600067ffffffffffffffff8211156200034d576200034c620002ab565b5b62000358826200029a565b9050602081019050919050565b60005b838110156200038557808201518184015260208101905062000368565b8381111562000395576000848401525b50505050565b6000620003b2620003ac846200032f565b62000310565b905082815260208101848484011115620003d157620003d062000295565b5b620003de84828562000365565b509392505050565b600082601f830112620003fe57620003fd62000290565b5b8151620004108482602086016200039b565b91505092915050565b6000819050919050565b6200042e8162000419565b81146200043a57600080fd5b50565b6000815190506200044e8162000423565b92915050565b6000806000806080858703121562000471576200047062000286565b5b600085015167ffffffffffffffff8111156200049257620004916200028b565b5b620004a087828801620003e6565b945050602085015167ffffffffffffffff811115620004c457620004c36200028b565b5b620004d287828801620003e6565b9350506040620004e5878288016200043d565b9250506060620004f8878288016200043d565b91505092959194509250565b7f4e487b7100000000000000000000000000000000000000000000000000000000600052602260045260246000fd5b600060028204905060018216806200054c57607f821691505b6020821081141562000563576200056262000504565b5b50919050565b61588280620005796000396000f3fe6080604052600436106102715760003560e01c80637d8966e41161014f578063c87b56dd116100c1578063e86b0b2c1161007a578063e86b0b2c1461092c578063e985e9c514610957578063eb8835ab14610994578063f2fde38b146109d1578063f591e327146109fa578063f759867a14610a2557610271565b8063c87b56dd1461081e578063cd3293de1461085b578063d5abeb0114610872578063d886a5c81461089d578063d9ecad7b146108c6578063e2b26b15146108ef57610271565b8063a0712d6811610113578063a0712d6814610721578063a22cb4651461073d578063a40af0db14610766578063b88d4fde1461078f578063bf46d1aa146107b8578063c2ca0ac5146107f557610271565b80637d8966e4146106605780638da5cb5b1461067757806391b7f5ed146106a257806395d89b41146106cb578063a035b1fe146106f657610271565b80633549345e116101e857806353135ca0116101ac57806353135ca01461055057806355f804b31461057b5780636352211e146105a457806368428a1b146105e157806370a082311461060c578063715018a61461064957610271565b80633549345e1461046d5780633ccfd60b1461049657806342842e0e146104ad578063438b6300146104d65780634f6ccce71461051357610271565b8063095ea7b31161023a578063095ea7b31461037157806318160ddd1461039a57806323b872dd146103c55780632f745c59146103ee5780633299c1201461042b578063343937431461045657610271565b80620e7fa81461027657806301ffc9a7146102a157806306fdde03146102de5780630746515c14610309578063081812fc14610334575b600080fd5b34801561028257600080fd5b5061028b610a41565b6040516102989190613b83565b60405180910390f35b3480156102ad57600080fd5b506102c860048036038101906102c39190613c0a565b610a47565b6040516102d59190613c52565b60405180910390f35b3480156102ea57600080fd5b506102f3610ac1565b6040516103009190613d06565b60405180910390f35b34801561031557600080fd5b5061031e610b53565b60405161032b9190613b83565b60405180910390f35b34801561034057600080fd5b5061035b60048036038101906103569190613d54565b610b59565b6040516103689190613dc2565b60405180910390f35b34801561037d57600080fd5b5061039860048036038101906103939190613e09565b610bde565b005b3480156103a657600080fd5b506103af610cf6565b6040516103bc9190613b83565b60405180910390f35b3480156103d157600080fd5b506103ec60048036038101906103e79190613e49565b610d03565b005b3480156103fa57600080fd5b5061041560048036038101906104109190613e09565b610e57565b6040516104229190613b83565b60405180910390f35b34801561043757600080fd5b50610440610efc565b60405161044d9190613b83565b60405180910390f35b34801561046257600080fd5b5061046b610f02565b005b34801561047957600080fd5b50610494600480360381019061048f9190613d54565b610faa565b005b3480156104a257600080fd5b506104ab611030565b005b3480156104b957600080fd5b506104d460048036038101906104cf9190613e49565b6110fb565b005b3480156104e257600080fd5b506104fd60048036038101906104f89190613e9c565b61124f565b60405161050a9190613f87565b60405180910390f35b34801561051f57600080fd5b5061053a60048036038101906105359190613d54565b6112fd565b6040516105479190613b83565b60405180910390f35b34801561055c57600080fd5b5061056561136e565b6040516105729190613c52565b60405180910390f35b34801561058757600080fd5b506105a2600480360381019061059d91906140de565b611381565b005b3480156105b057600080fd5b506105cb60048036038101906105c69190613d54565b611417565b6040516105d89190613dc2565b60405180910390f35b3480156105ed57600080fd5b506105f66114c9565b6040516106039190613c52565b60405180910390f35b34801561061857600080fd5b50610633600480360381019061062e9190613e9c565b6114dc565b6040516106409190613b83565b60405180910390f35b34801561065557600080fd5b5061065e611594565b005b34801561066c57600080fd5b5061067561161c565b005b34801561068357600080fd5b5061068c6116c4565b6040516106999190613dc2565b60405180910390f35b3480156106ae57600080fd5b506106c960048036038101906106c49190613d54565b6116ee565b005b3480156106d757600080fd5b506106e0611774565b6040516106ed9190613d06565b60405180910390f35b34801561070257600080fd5b5061070b611806565b6040516107189190613b83565b60405180910390f35b61073b60048036038101906107369190613d54565b61180c565b005b34801561074957600080fd5b50610764600480360381019061075f9190614153565b6119f0565b005b34801561077257600080fd5b5061078d60048036038101906107889190613e9c565b611a06565b005b34801561079b57600080fd5b506107b660048036038101906107b19190614234565b611ac6565b005b3480156107c457600080fd5b506107df60048036038101906107da9190613d54565b611c1c565b6040516107ec9190613b83565b60405180910390f35b34801561080157600080fd5b5061081c60048036038101906108179190613d54565b611c34565b005b34801561082a57600080fd5b5061084560048036038101906108409190613d54565b611cff565b6040516108529190613d06565b60405180910390f35b34801561086757600080fd5b50610870611da6565b005b34801561087e57600080fd5b50610887611ebb565b6040516108949190613b83565b60405180910390f35b3480156108a957600080fd5b506108c460048036038101906108bf919061436d565b611ec1565b005b3480156108d257600080fd5b506108ed60048036038101906108e891906143ee565b611fe9565b005b3480156108fb57600080fd5b5061091660048036038101906109119190613e9c565b6122e5565b6040516109239190613b83565b60405180910390f35b34801561093857600080fd5b506109416122fd565b60405161094e9190613b83565b60405180910390f35b34801561096357600080fd5b5061097e6004803603810190610979919061442e565b61230a565b60405161098b9190613c52565b60405180910390f35b3480156109a057600080fd5b506109bb60048036038101906109b69190613e9c565b61239e565b6040516109c89190613b83565b60405180910390f35b3480156109dd57600080fd5b506109f860048036038101906109f39190613e9c565b6123b6565b005b348015610a0657600080fd5b50610a0f6124ae565b604051610a1c91906144cd565b60405180910390f35b610a3f6004803603810190610a3a9190613d54565b6124d4565b005b60105481565b60007f780e9d63000000000000000000000000000000000000000000000000000000007bffffffffffffffffffffffffffffffffffffffffffffffffffffffff1916827bffffffffffffffffffffffffffffffffffffffffffffffffffffffff19161480610aba5750610ab982612783565b5b9050919050565b606060008054610ad090614517565b80601f0160208091040260200160405190810160405280929190818152602001828054610afc90614517565b8015610b495780601f10610b1e57610100808354040283529160200191610b49565b820191906000526020600020905b815481529060010190602001808311610b2c57829003601f168201915b5050505050905090565b600e5481565b6000610b6482612865565b610ba3576040517f08c379a0000000000000000000000000000000000000000000000000000000008152600401610b9a906145bb565b60405180910390fd5b6004600083815260200190815260200160002060009054906101000a900473ffffffffffffffffffffffffffffffffffffffff169050919050565b6000610be982611417565b90508073ffffffffffffffffffffffffffffffffffffffff168373ffffffffffffffffffffffffffffffffffffffff161415610c5a576040517f08c379a0000000000000000000000000000000000000000000000000000000008152600401610c519061464d565b60405180910390fd5b8073ffffffffffffffffffffffffffffffffffffffff16610c796128d1565b73ffffffffffffffffffffffffffffffffffffffff161480610ca85750610ca781610ca26128d1565b61230a565b5b610ce7576040517f08c379a0000000000000000000000000000000000000000000000000000000008152600401610cde906146df565b60405180910390fd5b610cf183836128d9565b505050565b6000600880549050905090565b600d54811015610e4757601460009054906101000a900473ffffffffffffffffffffffffffffffffffffffff1673ffffffffffffffffffffffffffffffffffffffff1663d230af3a84846040518363ffffffff1660e01b8152600401610d6a9291906146ff565b600060405180830381600087803b158015610d8457600080fd5b505af1158015610d98573d6000803e3d6000fd5b50505050601360008473ffffffffffffffffffffffffffffffffffffffff1673ffffffffffffffffffffffffffffffffffffffff1681526020019081526020016000206000815480929190610dec90614757565b9190505550601360008373ffffffffffffffffffffffffffffffffffffffff1673ffffffffffffffffffffffffffffffffffffffff1681526020019081526020016000206000815480929190610e4190614781565b91905055505b610e52838383612992565b505050565b6000610e62836114dc565b8210610ea3576040517f08c379a0000000000000000000000000000000000000000000000000000000008152600401610e9a9061483c565b60405180910390fd5b600660008473ffffffffffffffffffffffffffffffffffffffff1673ffffffffffffffffffffffffffffffffffffffff168152602001908152602001600020600083815260200190815260200160002054905092915050565b600d5481565b610f0a6128d1565b73ffffffffffffffffffffffffffffffffffffffff16610f286116c4565b73ffffffffffffffffffffffffffffffffffffffff1614610f7e576040517f08c379a0000000000000000000000000000000000000000000000000000000008152600401610f75906148a8565b60405180910390fd5b601160009054906101000a900460ff1615601160006101000a81548160ff021916908315150217905550565b610fb26128d1565b73ffffffffffffffffffffffffffffffffffffffff16610fd06116c4565b73ffffffffffffffffffffffffffffffffffffffff1614611026576040517f08c379a000000000000000000000000000000000000000000000000000000000815260040161101d906148a8565b60405180910390fd5b8060108190555050565b6110386128d1565b73ffffffffffffffffffffffffffffffffffffffff166110566116c4565b73ffffffffffffffffffffffffffffffffffffffff16146110ac576040517f08c379a00000000000000000000000000000000000000000000000000000000081526004016110a3906148a8565b60405180910390fd5b60004790503373ffffffffffffffffffffffffffffffffffffffff166108fc829081150290604051600060405180830381858888f193505050501580156110f7573d6000803e3d6000fd5b5050565b600d5481101561123f57601460009054906101000a900473ffffffffffffffffffffffffffffffffffffffff1673ffffffffffffffffffffffffffffffffffffffff1663d230af3a84846040518363ffffffff1660e01b81526004016111629291906146ff565b600060405180830381600087803b15801561117c57600080fd5b505af1158015611190573d6000803e3d6000fd5b50505050601360008473ffffffffffffffffffffffffffffffffffffffff1673ffffffffffffffffffffffffffffffffffffffff16815260200190815260200160002060008154809291906111e490614757565b9190505550601360008373ffffffffffffffffffffffffffffffffffffffff1673ffffffffffffffffffffffffffffffffffffffff168152602001908152602001600020600081548092919061123990614781565b91905055505b61124a8383836129f2565b505050565b6060600061125c836114dc565b905060008167ffffffffffffffff81111561127a57611279613fb3565b5b6040519080825280602002602001820160405280156112a85781602001602082028036833780820191505090505b50905060005b828110156112f2576112c08582610e57565b8282815181106112d3576112d26148c8565b5b60200260200101818152505080806112ea90614781565b9150506112ae565b508092505050919050565b6000611307610cf6565b8210611348576040517f08c379a000000000000000000000000000000000000000000000000000000000815260040161133f90614969565b60405180910390fd5b6008828154811061135c5761135b6148c8565b5b90600052602060002001549050919050565b601160009054906101000a900460ff1681565b6113896128d1565b73ffffffffffffffffffffffffffffffffffffffff166113a76116c4565b73ffffffffffffffffffffffffffffffffffffffff16146113fd576040517f08c379a00000000000000000000000000000000000000000000000000000000081526004016113f4906148a8565b60405180910390fd5b80600b9080519060200190611413929190613ac7565b5050565b6000806002600084815260200190815260200160002060009054906101000a900473ffffffffffffffffffffffffffffffffffffffff169050600073ffffffffffffffffffffffffffffffffffffffff168173ffffffffffffffffffffffffffffffffffffffff1614156114c0576040517f08c379a00000000000000000000000000000000000000000000000000000000081526004016114b7906149fb565b60405180910390fd5b80915050919050565b601160019054906101000a900460ff1681565b60008073ffffffffffffffffffffffffffffffffffffffff168273ffffffffffffffffffffffffffffffffffffffff16141561154d576040517f08c379a000000000000000000000000000000000000000000000000000000000815260040161154490614a8d565b60405180910390fd5b600360008373ffffffffffffffffffffffffffffffffffffffff1673ffffffffffffffffffffffffffffffffffffffff168152602001908152602001600020549050919050565b61159c6128d1565b73ffffffffffffffffffffffffffffffffffffffff166115ba6116c4565b73ffffffffffffffffffffffffffffffffffffffff1614611610576040517f08c379a0000000000000000000000000000000000000000000000000000000008152600401611607906148a8565b60405180910390fd5b61161a6000612a12565b565b6116246128d1565b73ffffffffffffffffffffffffffffffffffffffff166116426116c4565b73ffffffffffffffffffffffffffffffffffffffff1614611698576040517f08c379a000000000000000000000000000000000000000000000000000000000815260040161168f906148a8565b60405180910390fd5b601160019054906101000a900460ff1615601160016101000a81548160ff021916908315150217905550565b6000600a60009054906101000a900473ffffffffffffffffffffffffffffffffffffffff16905090565b6116f66128d1565b73ffffffffffffffffffffffffffffffffffffffff166117146116c4565b73ffffffffffffffffffffffffffffffffffffffff161461176a576040517f08c379a0000000000000000000000000000000000000000000000000000000008152600401611761906148a8565b60405180910390fd5b80600f8190555050565b60606001805461178390614517565b80601f01602080910402602001604051908101604052809291908181526020018280546117af90614517565b80156117fc5780601f106117d1576101008083540402835291602001916117fc565b820191906000526020600020905b8154815290600101906020018083116117df57829003601f168201915b5050505050905090565b600f5481565b6000611816610cf6565b9050601160019054906101000a900460ff16611867576040517f08c379a000000000000000000000000000000000000000000000000000000000815260040161185e90614af9565b60405180910390fd5b6000821180156118775750600b82105b6118b6576040517f08c379a00000000000000000000000000000000000000000000000000000000081526004016118ad90614b65565b60405180910390fd5b600d546118cc8383612ad890919063ffffffff16565b111561190d576040517f08c379a000000000000000000000000000000000000000000000000000000000815260040161190490614bd1565b60405180910390fd5b3461192383600f54612aee90919063ffffffff16565b14611963576040517f08c379a000000000000000000000000000000000000000000000000000000000815260040161195a90614c3d565b60405180910390fd5b60005b828110156119eb5761198333828461197e9190614c5d565b612b04565b601360003373ffffffffffffffffffffffffffffffffffffffff1673ffffffffffffffffffffffffffffffffffffffff16815260200190815260200160002060008154809291906119d390614781565b919050555080806119e390614781565b915050611966565b505050565b611a026119fb6128d1565b8383612b22565b5050565b611a0e6128d1565b73ffffffffffffffffffffffffffffffffffffffff16611a2c6116c4565b73ffffffffffffffffffffffffffffffffffffffff1614611a82576040517f08c379a0000000000000000000000000000000000000000000000000000000008152600401611a79906148a8565b60405180910390fd5b80601460006101000a81548173ffffffffffffffffffffffffffffffffffffffff021916908373ffffffffffffffffffffffffffffffffffffffff16021790555050565b600d54821015611c0a57601460009054906101000a900473ffffffffffffffffffffffffffffffffffffffff1673ffffffffffffffffffffffffffffffffffffffff1663d230af3a85856040518363ffffffff1660e01b8152600401611b2d9291906146ff565b600060405180830381600087803b158015611b4757600080fd5b505af1158015611b5b573d6000803e3d6000fd5b50505050601360008573ffffffffffffffffffffffffffffffffffffffff1673ffffffffffffffffffffffffffffffffffffffff1681526020019081526020016000206000815480929190611baf90614757565b9190505550601360008473ffffffffffffffffffffffffffffffffffffffff1673ffffffffffffffffffffffffffffffffffffffff1681526020019081526020016000206000815480929190611c0490614781565b91905055505b611c1684848484612c8f565b50505050565b60156020528060005260406000206000915090505481565b803373ffffffffffffffffffffffffffffffffffffffff16611c5582611417565b73ffffffffffffffffffffffffffffffffffffffff1614611cab576040517f08c379a0000000000000000000000000000000000000000000000000000000008152600401611ca290614d25565b60405180910390fd5b600260156000848152602001908152602001600020819055507f9297b8146984b0914771271f00ae188c010fb77950a299f05b174b0035f1422182604051611cf39190613b83565b60405180910390a15050565b6060611d0a82612865565b611d49576040517f08c379a0000000000000000000000000000000000000000000000000000000008152600401611d4090614db7565b60405180910390fd5b6000611d53612cf1565b90506000815111611d735760405180602001604052806000815250611d9e565b80611d7d84612d83565b604051602001611d8e929190614e13565b6040516020818303038152906040525b915050919050565b611dae6128d1565b73ffffffffffffffffffffffffffffffffffffffff16611dcc6116c4565b73ffffffffffffffffffffffffffffffffffffffff1614611e22576040517f08c379a0000000000000000000000000000000000000000000000000000000008152600401611e19906148a8565b60405180910390fd5b6000611e2c610cf6565b905060005b6032811015611eb757611e4f338284611e4a9190614c5d565b612b04565b601360003373ffffffffffffffffffffffffffffffffffffffff1673ffffffffffffffffffffffffffffffffffffffff1681526020019081526020016000206000815480929190611e9f90614781565b91905055508080611eaf90614781565b915050611e31565b5050565b600c5481565b611ec96128d1565b73ffffffffffffffffffffffffffffffffffffffff16611ee76116c4565b73ffffffffffffffffffffffffffffffffffffffff1614611f3d576040517f08c379a0000000000000000000000000000000000000000000000000000000008152600401611f34906148a8565b60405180910390fd5b60005b84849050811015611fe257828282818110611f5e57611f5d6148c8565b5b9050602002013560126000878785818110611f7c57611f7b6148c8565b5b9050602002016020810190611f919190613e9c565b73ffffffffffffffffffffffffffffffffffffffff1673ffffffffffffffffffffffffffffffffffffffff168152602001908152602001600020819055508080611fda90614781565b915050611f40565b5050505050565b813373ffffffffffffffffffffffffffffffffffffffff1661200a82611417565b73ffffffffffffffffffffffffffffffffffffffff1614612060576040517f08c379a000000000000000000000000000000000000000000000000000000000815260040161205790614d25565b60405180910390fd5b813373ffffffffffffffffffffffffffffffffffffffff1661208182611417565b73ffffffffffffffffffffffffffffffffffffffff16146120d7576040517f08c379a00000000000000000000000000000000000000000000000000000000081526004016120ce90614d25565b60405180910390fd5b60006120e1610cf6565b9050600c548110612127576040517f08c379a000000000000000000000000000000000000000000000000000000000815260040161211e90614e83565b60405180910390fd5b600d54851080156121395750600d5484105b612178576040517f08c379a000000000000000000000000000000000000000000000000000000000815260040161216f90614f15565b60405180910390fd5b838514156121bb576040517f08c379a00000000000000000000000000000000000000000000000000000000081526004016121b290614f81565b60405180910390fd5b601460009054906101000a900473ffffffffffffffffffffffffffffffffffffffff1673ffffffffffffffffffffffffffffffffffffffff16639dc29fac33683635c9adc5dea000006040518363ffffffff1660e01b8152600401612221929190614fa1565b600060405180830381600087803b15801561223b57600080fd5b505af115801561224f573d6000803e3d6000fd5b505050506000600e54600d546122659190614c5d565b905060016015600083815260200190815260200160002081905550600e600081548092919061229390614781565b91905055506122a23382612b04565b7f57a7d0ad468ac4cf04bd7fde79ec8896808605bc6aeca7ff50f90609469cdd948187876040516122d593929190614fca565b60405180910390a1505050505050565b60136020528060005260406000206000915090505481565b683635c9adc5dea0000081565b6000600560008473ffffffffffffffffffffffffffffffffffffffff1673ffffffffffffffffffffffffffffffffffffffff16815260200190815260200160002060008373ffffffffffffffffffffffffffffffffffffffff1673ffffffffffffffffffffffffffffffffffffffff16815260200190815260200160002060009054906101000a900460ff16905092915050565b60126020528060005260406000206000915090505481565b6123be6128d1565b73ffffffffffffffffffffffffffffffffffffffff166123dc6116c4565b73ffffffffffffffffffffffffffffffffffffffff1614612432576040517f08c379a0000000000000000000000000000000000000000000000000000000008152600401612429906148a8565b60405180910390fd5b600073ffffffffffffffffffffffffffffffffffffffff168173ffffffffffffffffffffffffffffffffffffffff1614156124a2576040517f08c379a000000000000000000000000000000000000000000000000000000000815260040161249990615073565b60405180910390fd5b6124ab81612a12565b50565b601460009054906101000a900473ffffffffffffffffffffffffffffffffffffffff1681565b60006124de610cf6565b90506000601260003373ffffffffffffffffffffffffffffffffffffffff1673ffffffffffffffffffffffffffffffffffffffff168152602001908152602001600020549050601160009054906101000a900460ff16612573576040517f08c379a000000000000000000000000000000000000000000000000000000000815260040161256a906150df565b60405180910390fd5b600081116125b6576040517f08c379a00000000000000000000000000000000000000000000000000000000081526004016125ad90615171565b60405180910390fd5b808311156125f9576040517f08c379a00000000000000000000000000000000000000000000000000000000081526004016125f0906151dd565b60405180910390fd5b600d5461260f8484612ad890919063ffffffff16565b1115612650576040517f08c379a000000000000000000000000000000000000000000000000000000000815260040161264790614bd1565b60405180910390fd5b3461266684601054612aee90919063ffffffff16565b146126a6576040517f08c379a000000000000000000000000000000000000000000000000000000000815260040161269d90614c3d565b60405180910390fd5b82816126b291906151fd565b601260003373ffffffffffffffffffffffffffffffffffffffff1673ffffffffffffffffffffffffffffffffffffffff1681526020019081526020016000208190555060005b8381101561277d576127153382856127109190614c5d565b612b04565b601360003373ffffffffffffffffffffffffffffffffffffffff1673ffffffffffffffffffffffffffffffffffffffff168152602001908152602001600020600081548092919061276590614781565b9190505550808061277590614781565b9150506126f8565b50505050565b60007f80ac58cd000000000000000000000000000000000000000000000000000000007bffffffffffffffffffffffffffffffffffffffffffffffffffffffff1916827bffffffffffffffffffffffffffffffffffffffffffffffffffffffff1916148061284e57507f5b5e139f000000000000000000000000000000000000000000000000000000007bffffffffffffffffffffffffffffffffffffffffffffffffffffffff1916827bffffffffffffffffffffffffffffffffffffffffffffffffffffffff1916145b8061285e575061285d82612ee4565b5b9050919050565b60008073ffffffffffffffffffffffffffffffffffffffff166002600084815260200190815260200160002060009054906101000a900473ffffffffffffffffffffffffffffffffffffffff1673ffffffffffffffffffffffffffffffffffffffff1614159050919050565b600033905090565b816004600083815260200190815260200160002060006101000a81548173ffffffffffffffffffffffffffffffffffffffff021916908373ffffffffffffffffffffffffffffffffffffffff160217905550808273ffffffffffffffffffffffffffffffffffffffff1661294c83611417565b73ffffffffffffffffffffffffffffffffffffffff167f8c5be1e5ebec7d5bd14f71427d1e84f3dd0314c0f7b2291e5b200ac8c7c3b92560405160405180910390a45050565b6129a361299d6128d1565b82612f4e565b6129e2576040517f08c379a00000000000000000000000000000000000000000000000000000000081526004016129d9906152a3565b60405180910390fd5b6129ed83838361302c565b505050565b612a0d83838360405180602001604052806000815250611ac6565b505050565b6000600a60009054906101000a900473ffffffffffffffffffffffffffffffffffffffff16905081600a60006101000a81548173ffffffffffffffffffffffffffffffffffffffff021916908373ffffffffffffffffffffffffffffffffffffffff1602179055508173ffffffffffffffffffffffffffffffffffffffff168173ffffffffffffffffffffffffffffffffffffffff167f8be0079c531659141344cd1fd0a4f28419497f9722a3daafe3b4186f6b6457e060405160405180910390a35050565b60008183612ae69190614c5d565b905092915050565b60008183612afc91906152c3565b905092915050565b612b1e828260405180602001604052806000815250613288565b5050565b8173ffffffffffffffffffffffffffffffffffffffff168373ffffffffffffffffffffffffffffffffffffffff161415612b91576040517f08c379a0000000000000000000000000000000000000000000000000000000008152600401612b8890615369565b60405180910390fd5b80600560008573ffffffffffffffffffffffffffffffffffffffff1673ffffffffffffffffffffffffffffffffffffffff16815260200190815260200160002060008473ffffffffffffffffffffffffffffffffffffffff1673ffffffffffffffffffffffffffffffffffffffff16815260200190815260200160002060006101000a81548160ff0219169083151502179055508173ffffffffffffffffffffffffffffffffffffffff168373ffffffffffffffffffffffffffffffffffffffff167f17307eab39ab6107e8899845ad3d59bd9653f200f220920489ca2b5937696c3183604051612c829190613c52565b60405180910390a3505050565b612ca0612c9a6128d1565b83612f4e565b612cdf576040517f08c379a0000000000000000000000000000000000000000000000000000000008152600401612cd6906152a3565b60405180910390fd5b612ceb848484846132e3565b50505050565b6060600b8054612d0090614517565b80601f0160208091040260200160405190810160405280929190818152602001828054612d2c90614517565b8015612d795780601f10612d4e57610100808354040283529160200191612d79565b820191906000526020600020905b815481529060010190602001808311612d5c57829003601f168201915b5050505050905090565b60606000821415612dcb576040518060400160405280600181526020017f30000000000000000000000000000000000000000000000000000000000000008152509050612edf565b600082905060005b60008214612dfd578080612de690614781565b915050600a82612df691906153b8565b9150612dd3565b60008167ffffffffffffffff811115612e1957612e18613fb3565b5b6040519080825280601f01601f191660200182016040528015612e4b5781602001600182028036833780820191505090505b5090505b60008514612ed857600182612e6491906151fd565b9150600a85612e7391906153e9565b6030612e7f9190614c5d565b60f81b818381518110612e9557612e946148c8565b5b60200101907effffffffffffffffffffffffffffffffffffffffffffffffffffffffffffff1916908160001a905350600a85612ed191906153b8565b9450612e4f565b8093505050505b919050565b60007f01ffc9a7000000000000000000000000000000000000000000000000000000007bffffffffffffffffffffffffffffffffffffffffffffffffffffffff1916827bffffffffffffffffffffffffffffffffffffffffffffffffffffffff1916149050919050565b6000612f5982612865565b612f98576040517f08c379a0000000000000000000000000000000000000000000000000000000008152600401612f8f9061548c565b60405180910390fd5b6000612fa383611417565b90508073ffffffffffffffffffffffffffffffffffffffff168473ffffffffffffffffffffffffffffffffffffffff16148061301257508373ffffffffffffffffffffffffffffffffffffffff16612ffa84610b59565b73ffffffffffffffffffffffffffffffffffffffff16145b806130235750613022818561230a565b5b91505092915050565b8273ffffffffffffffffffffffffffffffffffffffff1661304c82611417565b73ffffffffffffffffffffffffffffffffffffffff16146130a2576040517f08c379a00000000000000000000000000000000000000000000000000000000081526004016130999061551e565b60405180910390fd5b600073ffffffffffffffffffffffffffffffffffffffff168273ffffffffffffffffffffffffffffffffffffffff161415613112576040517f08c379a0000000000000000000000000000000000000000000000000000000008152600401613109906155b0565b60405180910390fd5b61311d83838361333f565b6131286000826128d9565b6001600360008573ffffffffffffffffffffffffffffffffffffffff1673ffffffffffffffffffffffffffffffffffffffff168152602001908152602001600020600082825461317891906151fd565b925050819055506001600360008473ffffffffffffffffffffffffffffffffffffffff1673ffffffffffffffffffffffffffffffffffffffff16815260200190815260200160002060008282546131cf9190614c5d565b92505081905550816002600083815260200190815260200160002060006101000a81548173ffffffffffffffffffffffffffffffffffffffff021916908373ffffffffffffffffffffffffffffffffffffffff160217905550808273ffffffffffffffffffffffffffffffffffffffff168473ffffffffffffffffffffffffffffffffffffffff167fddf252ad1be2c89b69c2b068fc378daa952ba7f163c4a11628f55a4df523b3ef60405160405180910390a4505050565b6132928383613453565b61329f6000848484613621565b6132de576040517f08c379a00000000000000000000000000000000000000000000000000000000081526004016132d590615642565b60405180910390fd5b505050565b6132ee84848461302c565b6132fa84848484613621565b613339576040517f08c379a000000000000000000000000000000000000000000000000000000000815260040161333090615642565b60405180910390fd5b50505050565b61334a8383836137a9565b600073ffffffffffffffffffffffffffffffffffffffff168373ffffffffffffffffffffffffffffffffffffffff16141561338d57613388816137ae565b6133cc565b8173ffffffffffffffffffffffffffffffffffffffff168373ffffffffffffffffffffffffffffffffffffffff16146133cb576133ca83826137f7565b5b5b600073ffffffffffffffffffffffffffffffffffffffff168273ffffffffffffffffffffffffffffffffffffffff16141561340f5761340a81613964565b61344e565b8273ffffffffffffffffffffffffffffffffffffffff168273ffffffffffffffffffffffffffffffffffffffff161461344d5761344c8282613a35565b5b5b505050565b600073ffffffffffffffffffffffffffffffffffffffff168273ffffffffffffffffffffffffffffffffffffffff1614156134c3576040517f08c379a00000000000000000000000000000000000000000000000000000000081526004016134ba906156ae565b60405180910390fd5b6134cc81612865565b1561350c576040517f08c379a00000000000000000000000000000000000000000000000000000000081526004016135039061571a565b60405180910390fd5b6135186000838361333f565b6001600360008473ffffffffffffffffffffffffffffffffffffffff1673ffffffffffffffffffffffffffffffffffffffff16815260200190815260200160002060008282546135689190614c5d565b92505081905550816002600083815260200190815260200160002060006101000a81548173ffffffffffffffffffffffffffffffffffffffff021916908373ffffffffffffffffffffffffffffffffffffffff160217905550808273ffffffffffffffffffffffffffffffffffffffff16600073ffffffffffffffffffffffffffffffffffffffff167fddf252ad1be2c89b69c2b068fc378daa952ba7f163c4a11628f55a4df523b3ef60405160405180910390a45050565b60006136428473ffffffffffffffffffffffffffffffffffffffff16613ab4565b1561379c578373ffffffffffffffffffffffffffffffffffffffff1663150b7a0261366b6128d1565b8786866040518563ffffffff1660e01b815260040161368d949392919061578f565b6020604051808303816000875af19250505080156136c957506040513d601f19601f820116820180604052508101906136c691906157f0565b60015b61374c573d80600081146136f9576040519150601f19603f3d011682016040523d82523d6000602084013e6136fe565b606091505b50600081511415613744576040517f08c379a000000000000000000000000000000000000000000000000000000000815260040161373b90615642565b60405180910390fd5b805181602001fd5b63150b7a0260e01b7bffffffffffffffffffffffffffffffffffffffffffffffffffffffff1916817bffffffffffffffffffffffffffffffffffffffffffffffffffffffff1916149150506137a1565b600190505b949350505050565b505050565b6008805490506009600083815260200190815260200160002081905550600881908060018154018082558091505060019003906000526020600020016000909190919091505550565b60006001613804846114dc565b61380e91906151fd565b90506000600760008481526020019081526020016000205490508181146138f3576000600660008673ffffffffffffffffffffffffffffffffffffffff1673ffffffffffffffffffffffffffffffffffffffff168152602001908152602001600020600084815260200190815260200160002054905080600660008773ffffffffffffffffffffffffffffffffffffffff1673ffffffffffffffffffffffffffffffffffffffff168152602001908152602001600020600084815260200190815260200160002081905550816007600083815260200190815260200160002081905550505b6007600084815260200190815260200160002060009055600660008573ffffffffffffffffffffffffffffffffffffffff1673ffffffffffffffffffffffffffffffffffffffff16815260200190815260200160002060008381526020019081526020016000206000905550505050565b6000600160088054905061397891906151fd565b90506000600960008481526020019081526020016000205490506000600883815481106139a8576139a76148c8565b5b9060005260206000200154905080600883815481106139ca576139c96148c8565b5b906000526020600020018190555081600960008381526020019081526020016000208190555060096000858152602001908152602001600020600090556008805480613a1957613a1861581d565b5b6001900381819060005260206000200160009055905550505050565b6000613a40836114dc565b905081600660008573ffffffffffffffffffffffffffffffffffffffff1673ffffffffffffffffffffffffffffffffffffffff168152602001908152602001600020600083815260200190815260200160002081905550806007600084815260200190815260200160002081905550505050565b600080823b905060008111915050919050565b828054613ad390614517565b90600052602060002090601f016020900481019282613af55760008555613b3c565b82601f10613b0e57805160ff1916838001178555613b3c565b82800160010185558215613b3c579182015b82811115613b3b578251825591602001919060010190613b20565b5b509050613b499190613b4d565b5090565b5b80821115613b66576000816000905550600101613b4e565b5090565b6000819050919050565b613b7d81613b6a565b82525050565b6000602082019050613b986000830184613b74565b92915050565b6000604051905090565b600080fd5b600080fd5b60007fffffffff0000000000000000000000000000000000000000000000000000000082169050919050565b613be781613bb2565b8114613bf257600080fd5b50565b600081359050613c0481613bde565b92915050565b600060208284031215613c2057613c1f613ba8565b5b6000613c2e84828501613bf5565b91505092915050565b60008115159050919050565b613c4c81613c37565b82525050565b6000602082019050613c676000830184613c43565b92915050565b600081519050919050565b600082825260208201905092915050565b60005b83811015613ca7578082015181840152602081019050613c8c565b83811115613cb6576000848401525b50505050565b6000601f19601f8301169050919050565b6000613cd882613c6d565b613ce28185613c78565b9350613cf2818560208601613c89565b613cfb81613cbc565b840191505092915050565b60006020820190508181036000830152613d208184613ccd565b905092915050565b613d3181613b6a565b8114613d3c57600080fd5b50565b600081359050613d4e81613d28565b92915050565b600060208284031215613d6a57613d69613ba8565b5b6000613d7884828501613d3f565b91505092915050565b600073ffffffffffffffffffffffffffffffffffffffff82169050919050565b6000613dac82613d81565b9050919050565b613dbc81613da1565b82525050565b6000602082019050613dd76000830184613db3565b92915050565b613de681613da1565b8114613df157600080fd5b50565b600081359050613e0381613ddd565b92915050565b60008060408385031215613e2057613e1f613ba8565b5b6000613e2e85828601613df4565b9250506020613e3f85828601613d3f565b9150509250929050565b600080600060608486031215613e6257613e61613ba8565b5b6000613e7086828701613df4565b9350506020613e8186828701613df4565b9250506040613e9286828701613d3f565b9150509250925092565b600060208284031215613eb257613eb1613ba8565b5b6000613ec084828501613df4565b91505092915050565b600081519050919050565b600082825260208201905092915050565b6000819050602082019050919050565b613efe81613b6a565b82525050565b6000613f108383613ef5565b60208301905092915050565b6000602082019050919050565b6000613f3482613ec9565b613f3e8185613ed4565b9350613f4983613ee5565b8060005b83811015613f7a578151613f618882613f04565b9750613f6c83613f1c565b925050600181019050613f4d565b5085935050505092915050565b60006020820190508181036000830152613fa18184613f29565b905092915050565b600080fd5b600080fd5b7f4e487b7100000000000000000000000000000000000000000000000000000000600052604160045260246000fd5b613feb82613cbc565b810181811067ffffffffffffffff8211171561400a57614009613fb3565b5b80604052505050565b600061401d613b9e565b90506140298282613fe2565b919050565b600067ffffffffffffffff82111561404957614048613fb3565b5b61405282613cbc565b9050602081019050919050565b82818337600083830152505050565b600061408161407c8461402e565b614013565b90508281526020810184848401111561409d5761409c613fae565b5b6140a884828561405f565b509392505050565b600082601f8301126140c5576140c4613fa9565b5b81356140d584826020860161406e565b91505092915050565b6000602082840312156140f4576140f3613ba8565b5b600082013567ffffffffffffffff81111561411257614111613bad565b5b61411e848285016140b0565b91505092915050565b61413081613c37565b811461413b57600080fd5b50565b60008135905061414d81614127565b92915050565b6000806040838503121561416a57614169613ba8565b5b600061417885828601613df4565b92505060206141898582860161413e565b9150509250929050565b600067ffffffffffffffff8211156141ae576141ad613fb3565b5b6141b782613cbc565b9050602081019050919050565b60006141d76141d284614193565b614013565b9050828152602081018484840111156141f3576141f2613fae565b5b6141fe84828561405f565b509392505050565b600082601f83011261421b5761421a613fa9565b5b813561422b8482602086016141c4565b91505092915050565b6000806000806080858703121561424e5761424d613ba8565b5b600061425c87828801613df4565b945050602061426d87828801613df4565b935050604061427e87828801613d3f565b925050606085013567ffffffffffffffff81111561429f5761429e613bad565b5b6142ab87828801614206565b91505092959194509250565b600080fd5b600080fd5b60008083601f8401126142d7576142d6613fa9565b5b8235905067ffffffffffffffff8111156142f4576142f36142b7565b5b6020830191508360208202830111156143105761430f6142bc565b5b9250929050565b60008083601f84011261432d5761432c613fa9565b5b8235905067ffffffffffffffff81111561434a576143496142b7565b5b602083019150836020820283011115614366576143656142bc565b5b9250929050565b6000806000806040858703121561438757614386613ba8565b5b600085013567ffffffffffffffff8111156143a5576143a4613bad565b5b6143b1878288016142c1565b9450945050602085013567ffffffffffffffff8111156143d4576143d3613bad565b5b6143e087828801614317565b925092505092959194509250565b6000806040838503121561440557614404613ba8565b5b600061441385828601613d3f565b925050602061442485828601613d3f565b9150509250929050565b6000806040838503121561444557614444613ba8565b5b600061445385828601613df4565b925050602061446485828601613df4565b9150509250929050565b6000819050919050565b600061449361448e61448984613d81565b61446e565b613d81565b9050919050565b60006144a582614478565b9050919050565b60006144b78261449a565b9050919050565b6144c7816144ac565b82525050565b60006020820190506144e260008301846144be565b92915050565b7f4e487b7100000000000000000000000000000000000000000000000000000000600052602260045260246000fd5b6000600282049050600182168061452f57607f821691505b60208210811415614543576145426144e8565b5b50919050565b7f4552433732313a20617070726f76656420717565727920666f72206e6f6e657860008201527f697374656e7420746f6b656e0000000000000000000000000000000000000000602082015250565b60006145a5602c83613c78565b91506145b082614549565b604082019050919050565b600060208201905081810360008301526145d481614598565b9050919050565b7f4552433732313a20617070726f76616c20746f2063757272656e74206f776e6560008201527f7200000000000000000000000000000000000000000000000000000000000000602082015250565b6000614637602183613c78565b9150614642826145db565b604082019050919050565b600060208201905081810360008301526146668161462a565b9050919050565b7f4552433732313a20617070726f76652063616c6c6572206973206e6f74206f7760008201527f6e6572206e6f7220617070726f76656420666f7220616c6c0000000000000000602082015250565b60006146c9603883613c78565b91506146d48261466d565b604082019050919050565b600060208201905081810360008301526146f8816146bc565b9050919050565b60006040820190506147146000830185613db3565b6147216020830184613db3565b9392505050565b7f4e487b7100000000000000000000000000000000000000000000000000000000600052601160045260246000fd5b600061476282613b6a565b9150600082141561477657614775614728565b5b600182039050919050565b600061478c82613b6a565b91507fffffffffffffffffffffffffffffffffffffffffffffffffffffffffffffffff8214156147bf576147be614728565b5b600182019050919050565b7f455243373231456e756d657261626c653a206f776e657220696e646578206f7560008201527f74206f6620626f756e6473000000000000000000000000000000000000000000602082015250565b6000614826602b83613c78565b9150614831826147ca565b604082019050919050565b6000602082019050818103600083015261485581614819565b9050919050565b7f4f776e61626c653a2063616c6c6572206973206e6f7420746865206f776e6572600082015250565b6000614892602083613c78565b915061489d8261485c565b602082019050919050565b600060208201905081810360008301526148c181614885565b9050919050565b7f4e487b7100000000000000000000000000000000000000000000000000000000600052603260045260246000fd5b7f455243373231456e756d657261626c653a20676c6f62616c20696e646578206f60008201527f7574206f6620626f756e64730000000000000000000000000000000000000000602082015250565b6000614953602c83613c78565b915061495e826148f7565b604082019050919050565b6000602082019050818103600083015261498281614946565b9050919050565b7f4552433732313a206f776e657220717565727920666f72206e6f6e657869737460008201527f656e7420746f6b656e0000000000000000000000000000000000000000000000602082015250565b60006149e5602983613c78565b91506149f082614989565b604082019050919050565b60006020820190508181036000830152614a14816149d8565b9050919050565b7f4552433732313a2062616c616e636520717565727920666f7220746865207a6560008201527f726f206164647265737300000000000000000000000000000000000000000000602082015250565b6000614a77602a83613c78565b9150614a8282614a1b565b604082019050919050565b60006020820190508181036000830152614aa681614a6a565b9050919050565b7f53616c65206d7573742062652061637469766520746f206d696e740000000000600082015250565b6000614ae3601b83613c78565b9150614aee82614aad565b602082019050919050565b60006020820190508181036000830152614b1281614ad6565b9050919050565b7f496e76616c696420707572636861736520616d6f756e74000000000000000000600082015250565b6000614b4f601783613c78565b9150614b5a82614b19565b602082019050919050565b60006020820190508181036000830152614b7e81614b42565b9050919050565b7f507572636861736520776f756c6420657863656564206d617820737570706c79600082015250565b6000614bbb602083613c78565b9150614bc682614b85565b602082019050919050565b60006020820190508181036000830152614bea81614bae565b9050919050565b7f45746865722076616c75652073656e74206973206e6f7420636f727265637400600082015250565b6000614c27601f83613c78565b9150614c3282614bf1565b602082019050919050565b60006020820190508181036000830152614c5681614c1a565b9050919050565b6000614c6882613b6a565b9150614c7383613b6a565b9250827fffffffffffffffffffffffffffffffffffffffffffffffffffffffffffffffff03821115614ca857614ca7614728565b5b828201905092915050565b7f43616e6e6f7420696e74657261637420776974682061205a696c6c6120796f7560008201527f20646f206e6f74206f776e000000000000000000000000000000000000000000602082015250565b6000614d0f602b83613c78565b9150614d1a82614cb3565b604082019050919050565b60006020820190508181036000830152614d3e81614d02565b9050919050565b7f4552433732314d657461646174613a2055524920717565727920666f72206e6f60008201527f6e6578697374656e7420746f6b656e0000000000000000000000000000000000602082015250565b6000614da1602f83613c78565b9150614dac82614d45565b604082019050919050565b60006020820190508181036000830152614dd081614d94565b9050919050565b600081905092915050565b6000614ded82613c6d565b614df78185614dd7565b9350614e07818560208601613c89565b80840191505092915050565b6000614e1f8285614de2565b9150614e2b8284614de2565b91508190509392505050565b7f43616e6e6f7420686174636820616e79206d6f7265207a696c6c617300000000600082015250565b6000614e6d601c83613c78565b9150614e7882614e37565b602082019050919050565b60006020820190508181036000830152614e9c81614e60565b9050919050565b7f43616e6e6f742062726565642077697468207a696c6c612068617463686c696e60008201527f6700000000000000000000000000000000000000000000000000000000000000602082015250565b6000614eff602183613c78565b9150614f0a82614ea3565b604082019050919050565b60006020820190508181036000830152614f2e81614ef2565b9050919050565b7f4d7573742073656c6563742074776f20756e6971756520706172656e74730000600082015250565b6000614f6b601e83613c78565b9150614f7682614f35565b602082019050919050565b60006020820190508181036000830152614f9a81614f5e565b9050919050565b6000604082019050614fb66000830185613db3565b614fc36020830184613b74565b9392505050565b6000606082019050614fdf6000830186613b74565b614fec6020830185613b74565b614ff96040830184613b74565b949350505050565b7f4f776e61626c653a206e6577206f776e657220697320746865207a65726f206160008201527f6464726573730000000000000000000000000000000000000000000000000000602082015250565b600061505d602683613c78565b915061506882615001565b604082019050919050565b6000602082019050818103600083015261508c81615050565b9050919050565b7f50726573616c65206d7573742062652061637469766520746f206d696e740000600082015250565b60006150c9601e83613c78565b91506150d482615093565b602082019050919050565b600060208201905081810360008301526150f8816150bc565b9050919050565b7f4e6f20746f6b656e7320726573657276656420666f722074686973206164647260008201527f6573730000000000000000000000000000000000000000000000000000000000602082015250565b600061515b602383613c78565b9150615166826150ff565b604082019050919050565b6000602082019050818103600083015261518a8161514e565b9050919050565b7f43616e2774206d696e74206d6f7265207468616e207265736572766564000000600082015250565b60006151c7601d83613c78565b91506151d282615191565b602082019050919050565b600060208201905081810360008301526151f6816151ba565b9050919050565b600061520882613b6a565b915061521383613b6a565b92508282101561522657615225614728565b5b828203905092915050565b7f4552433732313a207472616e736665722063616c6c6572206973206e6f74206f60008201527f776e6572206e6f7220617070726f766564000000000000000000000000000000602082015250565b600061528d603183613c78565b915061529882615231565b604082019050919050565b600060208201905081810360008301526152bc81615280565b9050919050565b60006152ce82613b6a565b91506152d983613b6a565b9250817fffffffffffffffffffffffffffffffffffffffffffffffffffffffffffffffff048311821515161561531257615311614728565b5b828202905092915050565b7f4552433732313a20617070726f766520746f2063616c6c657200000000000000600082015250565b6000615353601983613c78565b915061535e8261531d565b602082019050919050565b6000602082019050818103600083015261538281615346565b9050919050565b7f4e487b7100000000000000000000000000000000000000000000000000000000600052601260045260246000fd5b60006153c382613b6a565b91506153ce83613b6a565b9250826153de576153dd615389565b5b828204905092915050565b60006153f482613b6a565b91506153ff83613b6a565b92508261540f5761540e615389565b5b828206905092915050565b7f4552433732313a206f70657261746f7220717565727920666f72206e6f6e657860008201527f697374656e7420746f6b656e0000000000000000000000000000000000000000602082015250565b6000615476602c83613c78565b91506154818261541a565b604082019050919050565b600060208201905081810360008301526154a581615469565b9050919050565b7f4552433732313a207472616e73666572206f6620746f6b656e2074686174206960008201527f73206e6f74206f776e0000000000000000000000000000000000000000000000602082015250565b6000615508602983613c78565b9150615513826154ac565b604082019050919050565b60006020820190508181036000830152615537816154fb565b9050919050565b7f4552433732313a207472616e7366657220746f20746865207a65726f2061646460008201527f7265737300000000000000000000000000000000000000000000000000000000602082015250565b600061559a602483613c78565b91506155a58261553e565b604082019050919050565b600060208201905081810360008301526155c98161558d565b9050919050565b7f4552433732313a207472616e7366657220746f206e6f6e20455243373231526560008201527f63656976657220696d706c656d656e7465720000000000000000000000000000602082015250565b600061562c603283613c78565b9150615637826155d0565b604082019050919050565b6000602082019050818103600083015261565b8161561f565b9050919050565b7f4552433732313a206d696e7420746f20746865207a65726f2061646472657373600082015250565b6000615698602083613c78565b91506156a382615662565b602082019050919050565b600060208201905081810360008301526156c78161568b565b9050919050565b7f4552433732313a20746f6b656e20616c7265616479206d696e74656400000000600082015250565b6000615704601c83613c78565b915061570f826156ce565b602082019050919050565b60006020820190508181036000830152615733816156f7565b9050919050565b600081519050919050565b600082825260208201905092915050565b60006157618261573a565b61576b8185615745565b935061577b818560208601613c89565b61578481613cbc565b840191505092915050565b60006080820190506157a46000830187613db3565b6157b16020830186613db3565b6157be6040830185613b74565b81810360608301526157d08184615756565b905095945050505050565b6000815190506157ea81613bde565b92915050565b60006020828403121561580657615805613ba8565b5b6000615814848285016157db565b91505092915050565b7f4e487b7100000000000000000000000000000000000000000000000000000000600052603160045260246000fdfea2646970667358221220a119c36806150e64d18b7ef73936d76b8f07c24a4406b624f8e291af814244c964736f6c634300080b0033",
  "immutableReferences": {},
  "source": "// SPDX-License-Identifier: MIT\r\n          \r\n//  ______     __  __     __     __         __         ______       \r\n// /\\  ___\\   /\\ \\_\\ \\   /\\ \\   /\\ \\       /\\ \\       /\\  __ \\      \r\n// \\ \\ \\____  \\ \\  __ \\  \\ \\ \\  \\ \\ \\____  \\ \\ \\____  \\ \\  __ \\     \r\n//  \\ \\_____\\  \\ \\_\\ \\_\\  \\ \\_\\  \\ \\_____\\  \\ \\_____\\  \\ \\_\\ \\_\\    \r\n//   \\/_____/   \\/_/\\/_/   \\/_/   \\/_____/   \\/_____/   \\/_/\\/_/    \r\n                                                                 \r\n//  ______     __     __         __         ______                  \r\n// /\\___  \\   /\\ \\   /\\ \\       /\\ \\       /\\  __ \\                 \r\n// \\/_/  /__  \\ \\ \\  \\ \\ \\____  \\ \\ \\____  \\ \\  __ \\                \r\n//   /\\_____\\  \\ \\_\\  \\ \\_____\\  \\ \\_____\\  \\ \\_\\ \\_\\               \r\n//   \\/_____/   \\/_/   \\/_____/   \\/_____/   \\/_/\\/_/        \r\n\r\npragma solidity ^0.8.0;\r\n\r\nimport \"./ChillaZillaERC721.sol\";\r\n\r\ninterface IZEGG {\r\n    function burn(address _from, uint256 _amount) external;\r\n    function updateReward(address _from, address _to) external;\r\n} \r\n\r\ncontract ChillaZilla is ChillaZillaERC721 {\r\n \r\n    modifier zillaOwner(uint256 zillaId) {\r\n        require(ownerOf(zillaId) == msg.sender, \"Cannot interact with a Zilla you do not own\");\r\n        _;\r\n    }\r\n    \r\n    IZEGG public ZEGG;\r\n    \r\n    uint256 constant public BREEDING_PRICE = 1000 ether;\r\n \r\n    /**\r\n     * @dev Keeps track of the state of hatchlingZilla\r\n     * 0 - Unminted\r\n     * 1 - Egg\r\n     * 2 - Revealed\r\n     */\r\n    mapping(uint256 => uint256) public hatchlingZilla;\r\n\r\n    event ZillaHatched(uint256 zillaId, uint256 parent1, uint256 parent2);\r\n    event ZillaRevealed(uint256 zillaId);\r\n\r\n    constructor(string memory name, string memory symbol, uint256 supply, uint256 genCount) ChillaZillaERC721(name, symbol, supply, genCount) {}\r\n\r\n    function breed(uint256 parent1, uint256 parent2) external zillaOwner(parent1) zillaOwner(parent2) {\r\n        uint256 supply = totalSupply(); \r\n        require(supply < maxSupply,                               \"Cannot hatch any more zillas\");\r\n        require(parent1 < maxGenCount && parent2 < maxGenCount,   \"Cannot breed with zilla hatchling\");\r\n        require(parent1 != parent2,                               \"Must select two unique parents\");\r\n\r\n        ZEGG.burn(msg.sender, BREEDING_PRICE);\r\n        uint256 zillaId = maxGenCount + hatchlingCount;\r\n        hatchlingZilla[zillaId] = 1;\r\n        hatchlingCount++;\r\n        _safeMint(msg.sender, zillaId);\r\n        emit ZillaHatched(zillaId, parent1, parent2);\r\n    }\r\n\r\n    function reveal(uint256 zillaId) external zillaOwner(zillaId) {\r\n        hatchlingZilla[zillaId] = 2;\r\n        emit ZillaRevealed(zillaId);\r\n    }\r\n\r\n    function setZillaEgg(address zEggAddress) external onlyOwner {\r\n        ZEGG = IZEGG(zEggAddress);\r\n    }\r\n    \r\n    function transferFrom(address from, address to, uint256 tokenId) public override {\r\n        if (tokenId < maxGenCount) {\r\n            ZEGG.updateReward(from, to);\r\n            balanceGenesis[from]--;\r\n            balanceGenesis[to]++;\r\n        }\r\n        ERC721.transferFrom(from, to, tokenId);\r\n    }\r\n\r\n    function safeTransferFrom(address from, address to, uint256 tokenId) public override {\r\n        if (tokenId < maxGenCount) {\r\n            ZEGG.updateReward(from, to);\r\n            balanceGenesis[from]--;\r\n            balanceGenesis[to]++;\r\n        }\r\n        ERC721.safeTransferFrom(from, to, tokenId);\r\n    }\r\n\r\n    function safeTransferFrom(address from, address to, uint256 tokenId, bytes memory data) public override {\r\n        if (tokenId < maxGenCount) {\r\n            ZEGG.updateReward(from, to);\r\n            balanceGenesis[from]--;\r\n            balanceGenesis[to]++;\r\n        }\r\n        ERC721.safeTransferFrom(from, to, tokenId, data);\r\n    }\r\n}",
  "sourcePath": "C:\\Users\\Evan\\ChillaZilla NFT Project\\ChillaZilla NFT\\src\\contracts\\ChillaZilla.sol",
  "compiler": {
    "name": "solc",
    "version": "0.8.11+commit.d7f03943.Emscripten.clang"
  },
  "schemaVersion": "3.4.3",
  "updatedAt": "2021-12-27T07:24:42.962Z",
  "devdoc": {
    "kind": "dev",
    "methods": {
      "approve(address,uint256)": {
        "details": "See {IERC721-approve}."
      },
      "balanceOf(address)": {
        "details": "See {IERC721-balanceOf}."
      },
      "getApproved(uint256)": {
        "details": "See {IERC721-getApproved}."
      },
      "isApprovedForAll(address,address)": {
        "details": "See {IERC721-isApprovedForAll}."
      },
      "name()": {
        "details": "See {IERC721Metadata-name}."
      },
      "owner()": {
        "details": "Returns the address of the current owner."
      },
      "ownerOf(uint256)": {
        "details": "See {IERC721-ownerOf}."
      },
      "renounceOwnership()": {
        "details": "Leaves the contract without owner. It will not be possible to call `onlyOwner` functions anymore. Can only be called by the current owner. NOTE: Renouncing ownership will leave the contract without an owner, thereby removing any functionality that is only available to the owner."
      },
      "safeTransferFrom(address,address,uint256)": {
        "details": "See {IERC721-safeTransferFrom}."
      },
      "setApprovalForAll(address,bool)": {
        "details": "See {IERC721-setApprovalForAll}."
      },
      "supportsInterface(bytes4)": {
        "details": "See {IERC165-supportsInterface}."
      },
      "symbol()": {
        "details": "See {IERC721Metadata-symbol}."
      },
      "tokenByIndex(uint256)": {
        "details": "See {IERC721Enumerable-tokenByIndex}."
      },
      "tokenOfOwnerByIndex(address,uint256)": {
        "details": "See {IERC721Enumerable-tokenOfOwnerByIndex}."
      },
      "tokenURI(uint256)": {
        "details": "See {IERC721Metadata-tokenURI}."
      },
      "totalSupply()": {
        "details": "See {IERC721Enumerable-totalSupply}."
      },
      "transferFrom(address,address,uint256)": {
        "details": "See {IERC721-transferFrom}."
      },
      "transferOwnership(address)": {
        "details": "Transfers ownership of the contract to a new account (`newOwner`). Can only be called by the current owner."
      }
    },
    "stateVariables": {
      "hatchlingZilla": {
        "details": "Keeps track of the state of hatchlingZilla 0 - Unminted 1 - Egg 2 - Revealed"
      }
    },
    "version": 1
  },
  "userdoc": {
    "kind": "user",
    "methods": {},
    "version": 1
  }
}